:1000000012C0189518951895189518951895189563
:1000100008C31895189593C51895189518951895AF
:100020001895189518958FE58DBFC8E3E0E24E2E20
:1000300084E08EBFD4E0F4E05F2EA89584B7082E4C
:10004000877F84BF88E1992781BD91BDEEEFF3E002
:10005000A0E6B0E088278D933197E9F789E189B967
:1000600080E080BD88E18AB96624579A72D3B99A34
:10007000C198B89A8F9A8E9A969A8D9AD2D580E026
:100080008FBD84E08EBD79B7746079BF7894C19AD2
:1000900087E08093A502A6E7B2E0EAECFCE029D570
:1000A00063D4082F013009F06BC08AE090E0CAD415
:1000B000A0E6B0E0BA93AA930ED322964AD381E089
:1000C00091E012D581E0E0E6F0E004E00A93A98136
:1000D000BA8168D5A881B981EAEDFCE089D50FB66F
:1000E00081E0481A81E0580A22960FBE09F027C025
:1000F00085E0E0E6F0E008E00A93A5E6B2E052D53C
:1001000085E0E0E6F0E008E00A93AAE9B2E04AD52B
:10011000B0D480918D02D2018C9381E0E4D480919F
:100120008C02D2018C9381E0DED480918B02D201CB
:100130008C9381E0D8D4D0D3269683E0D0D481E0CC
:1001400091E0D2D481E0E0E6F0E004E00A93A981F6
:10015000BA8128D5A881B981E0EEFCE049D50FB677
:1001600081E0481A81E0580A22960FBE09F008C0C3
:1001700085E0E0E6F0E000E10A93A6E7B2E012D500
:10018000A5E6B2E0E6EEFCE0B4D46BD4EAE9F2E036
:10019000A5E6B2E0CBD301D5A5E6B2E023D5082F82
:1001A000003108F006C0A5E6B2E0C0D3ECEEFCE0FA
:1001B000A0D4A5E6B2E016D5082F003108F4ECCFA4
:1001C000A6E7B2E00FD5082F003108F006C0A6E779
:1001D000B2E0ACD3ECEEFCE08CD4A6E7B2E002D502
:1001E000082F003108F4ECCFC098EF93FF93ECE4B4
:1001F000F0E01FD4FF91EF910091A50248E0040FB9
:10020000A4EAB2E00C9388EFD2018C9381E06BD426
:10021000E1D1229681E063D487E0D2018C9381E022
:1002200062D4D8D1229681E05AD48091A402D2011E
:100230008C9381E058D4CED1229681E050D486EFC1
:10024000D2018C9381E04FD4C5D1229681E047D46E
:1002500085EFD2018C9381E046D4BCD1229681E017
:100260003ED480EED2018C9381E03DD4B3D122966E
:1002700081E035D480917402D2018C9381E033D433
:10028000A9D1229681E02BD480917302D2018C9364
:1002900081E029D49FD1229681E021D480917202FD
:1002A000D2018C9381E01FD495D1229681E017D49E
:1002B00080917102D2018C9381E015D48BD122966A
:1002C00081E00DD480917002D2018C9381E00BD437
:1002D00081D1229681E003D480916F02D2018C9368
:1002E00081E001D477D1229681E0F9D380916E022A
:1002F000D2018C9381E0F7D36DD1229681E0EFD3C8
:1003000080916D02D2018C9381E0EDD363D122966E
:1003100081E0E5D380916C02D2018C9381E0E3D33C
:1003200059D1229681E0DBD380916B02D2018C936C
:1003300081E0D9D34FD1229681E0D1D380916A0256
:10034000D2018C9381E0CFD345D1229681E0C7D3EF
:1003500080916902D2018C9381E0C5D33BD1229672
:1003600081E0BDD380916802D2018C9381E0BBD340
:1003700031D1229681E0B3D380916702D2018C9370
:1003800081E0B1D327D1229681E0A9D38091660282
:10039000D2018C9381E0A7D31DD1229681E09FD317
:1003A00080916502D2018C9381E09DD313D1229676
:1003B00081E095D384EFD2018C9381E094D30AD16C
:1003C000229681E08CD381EFD2018C9381E08BD394
:1003D00001D1229681E083D3C09A9798EF93FF933F
:1003E000ECE4F0E026D3FF91EF910091A50248E004
:1003F000040FA4EAB2E00C9388EFD2018C9381E061
:1004000072D3E8D0229681E06AD387E0D2018C9340
:1004100081E069D3DFD0229681E061D38091A4028C
:10042000D2018C9381E05FD3D5D0229681E057D35F
:1004300086EFD2018C9381E056D3CCD0229681E016
:100440004ED385EFD2018C9381E04DD3C3D0229659
:1004500081E045D380EED2018C9381E044D3BAD0C1
:10046000229681E03CD380918502D2018C9381E079
:100470003AD3B0D0229681E032D380918402D20167
:100480008C9381E030D3A6D0229681E028D380914E
:100490008302D2018C9381E026D39CD0229681E006
:1004A0001ED380918202D2018C9381E01CD392D022
:1004B000229681E014D380918102D2018C9381E055
:1004C00012D388D0229681E00AD380918002D20193
:1004D0008C9381E008D37ED0229681E000D3809176
:1004E0007F02D2018C9381E0FED274D0229681E00B
:1004F000F6D280917E02D2018C9381E0F4D26AD050
:10050000229681E0ECD280917D02D2018C9381E031
:10051000EAD260D0229681E0E2D280917C02D201C0
:100520008C9381E0E0D256D0229681E0D8D280919F
:100530007B02D2018C9381E0D6D24CD0229681E00E
:10054000CED280917A02D2018C9381E0CCD242D07B
:10055000229681E0C4D280917902D2018C9381E00D
:10056000C2D238D0229681E0BAD280917802D201EC
:100570008C9381E0B8D22ED0229681E0B0D28091C7
:100580007702D2018C9381E0AED224D0229681E012
:10059000A6D280917602D2018C9381E0A4D21AD0A7
:1005A000229681E09CD284EFD2018C9381E09BD291
:1005B00011D0229681E093D281EFD2018C9381E019
:1005C00092D208D0229681E08AD2979A84E690E06F
:1005D00039D266CD81E08093A6020091A602083050
:1005E00010F009F016C0A881B9818C9187FBA2E3B5
:1005F000B0E08C9185F98C93969891E0A881B981AF
:100600007DD2969AA6EAB2E08C918F5F8C9308F423
:10061000E4CFEF93FF93E4E2F0E00BD2FF91EF9190
:1006200008950F921F922F923F924F925F927F9266
:10063000AF92BF920F931F932F933F934F935F936C
:100640006F937F938F939F93AF93BF93CF93DF93DA
:10065000EF93FF938FB78F93ADE8B2E0BA93AA936D
:10066000ACE8B2E0BA93AA93ABE8B2E0BA93AA932B
:10067000F4D02696AEE8B2E0BA93AA93AFE8B2E01F
:10068000BA93AA93A0E9B2E0BA93AA93A9D0269606
:100690008BED9BE09DBD8CBD8F918FBFFF91EF9146
:1006A000DF91CF91BF91AF919F918F917F916F918A
:1006B0005F914F913F912F911F910F91BF90AF90FC
:1006C0007F905F904F903F902F901F900F901895C4
:1006D000089508950895A0E6B0E088278C934AD144
:1006E000A0E6B1E08C93009160010A3009F430C0BB
:1006F00004E610E020E030E0A7EAB2E00D931D939D
:100700002D933C938BD2A0E6B0E0EFEF18D183D2CB
:10071000009160010A3009F41BC081E091E0E4D14E
:10072000E0E6F0E0A881B98138D2A0E6B1E08C9192
:10073000A0E6B0E08D9388278C93E881F981A0E64C
:10074000B0E0F4D02AD281E0481A81E0580A22961B
:1007500008958AE090E076D10DD1A0E6B1E08C93C7
:1007600000916001003009F0F7CF089581E0BBD11E
:10077000AE81BF818C9150D1AE81BF818C93AC8111
:10078000BD818C9149D1AC81BD818C93AA81BB8103
:100790008C9142D1AA81BB818C93A881B9818C9123
:1007A0003BD1A881B9818C9341D212EA54D216E090
:1007B00052D2AE81BF811C914ED2A881B9811C91C9
:1007C0004AD2AC81BD811C9146D2AA81BB811C91C9
:1007D00042D238D281E0481A80E0580A2296089521
:1007E00081E081D123D212EA36D215E034D21ED272
:1007F00013EA31D24FD2AE81BF811C934BD2A88174
:10080000B9811C9347D2AC81BD811C9341D2AA818E
:10081000BB811C9317D2AE81BF819C9103D1AE8165
:10082000BF818C93A881B9819C91FCD0A881B981AA
:100830008C93AC81BD819C91F5D0AC81BD818C93B2
:10084000AA81BB819C91EED0AA81BB818C9381E06F
:10085000481A80E0580A22960895E8D112EAFBD19E
:1008600012E0F9D1E3D113EAF6D114D2A881B9810B
:100870001C9310D2AA81BB811C930AD2AC81BD818A
:100880001C93E0D1A3EAB2E00C9107FB0EF00EC07E
:100890007091A3027F777093A302C8D112EADBD1D3
:1008A00013E0D9D11091A302D6D1CCD1A881B981BE
:1008B0009C91B8D0A881B9818C93AA81BB819C916D
:1008C000B1D0AA81BB818C93AC81BD819C91AAD00F
:1008D000AC81BD818C930895A881B9818C919CD005
:1008E000A881B9818C93AA81BB818C9195D0AA8172
:1008F000BB818C93AC81BD818C918ED0AC81BD814C
:100900008C9394D112EAA7D113E0A5D1A881B98123
:100910001C91A1D1AA81BB811C919DD1AC81BD81CB
:100920001C9199D18FD10895F894FFCF8F938D9119
:100930008823E9F711978F910895A8E0B4E01FD0BC
:10094000803079F08D3039F0EE23C9F38D93EA953C
:1009500063FE53D0F4CF63FC04C08DE04ED08AE038
:100960004CD088278C93089580916402882309F0E5
:1009700081E0089580916402882309F408950F921C
:100980009F93AF93BF937F930F931F932F933F93A7
:10099000A7EAB2E00D911D912D913C918827802B03
:1009A000812B822B832BF1F00150104020403040EE
:1009B00080916402882391F3F894809164028A956F
:1009C0008093640290916202A3E6B1E0A90F002433
:1009D000B01D8C9193959F3F09F4992790936202E3
:1009E000789401C088273F912F911F910F917F919B
:1009F000BF91AF919F910F9008955D9BFECF8CB9F1
:100A00000895982F82958F70805D8D939F70905D73
:100A10009D9388278C9308954AE0082FD3D00295A0
:100A2000802B0895892F8F70905110F0865FFCCF36
:100A300008953197F1F70895689462F80895E8945D
:100A400062F80895EF93FF93EE27E82BE92B31F03E
:100A5000E0EAFFE03197F1F70197D1F7FF91EF91CD
:100A6000089537DEA1E9B2E0EEE8F2E028D033974E
:100A700017C0EAE9F2E0ABE8B2E003D029CEADE07E
:100A8000BB278681978151D00D93838194814DD06E
:100A90000D938081918149D00D930895EDE0FF275A
:100AA000828138D08AE38D93818134D08AE38D931B
:100AB000808130D088278C930895EDE0FF278081D6
:100AC00029D08EE28D93818125D08EE28D93828113
:100AD00021D088278D930895481A590A0895481AF5
:100AE0008827580A089599275A924A92480E591E03
:100AF00008950CD00D920020E1F70895903029F070
:100B00008C91880F9A95E9F78C930895C895319642
:100B10000020089500278A3018F08A500395FBCFF3
:100B2000005D0D93805D8D93089580539053002751
:100B3000813018F0065F8A95FBCF090F08957F93E7
:100B40000F93AF93BF938F939F938FB78F938091A2
:100B500064020FEF081B19F49CB16EDF12C0009104
:100B60006302A3E6B1E077279CB1A00FB71F9C9367
:100B700083958093640203950F3F09F40027009347
:100B800063028F918FBF9F918F91BF91AF910F9112
:100B90007F91189588278D93089581918D9388234F
:100BA000E1F7089509919191992359F08A95D9F720
:100BB0003197002331F081918D930A958823C9F7ED
:100BC0000895E8CFFF93881BF9E0001FFA9511F410
:100BD000FF910895881F841B18F4840F8894F5CF23
:100BE0000894F3CF8FEF83959D919923E1F70895B2
:100BF000689401C0E894AF93BF938D9116F09191E2
:100C000002C084DF902D891718F011F48823A9F70A
:100C1000BF91AF910895E89463F80895689463F8DC
:100C200008958B988A989398929808958A9A8B98A9
:100C300003D08A9801D08B9AEF93E8E0EA95F1F718
:100C4000EF9108958A9A8B9AF7DF8A98829BFECF5C
:100C5000F3DF8B98F1CF0894111F01C0110F69F0D9
:100C60008A9A18F400008B9802C08B9A00C0E4DFC7
:100C70008A98829BFECFE0DFF1CF8A9A8B98DCDFE7
:100C80008A98829BFECFE8948399689462F8D4CFC7
:100C9000089401C08894331F11E08A9A8B98CCDFA6
:100CA0008A98829BFECFC8DF889483990894111F8D
:100CB000A0F78A9A379510F48B9801C08B9ABCDF05
:100CC0008A98829BFECFB8DF0895205F5F20497429
:100CD0007320576F726B205F5F002474696D000092
:0E0CE000246C696D0000202020200000200000
:00000001FF
