S01600005646445F436C6F636B5F323030342E73726563BE
S113000012C02CC02BC02AC029C028C027C050C190
S113001045C124C023C0C4C221C0F8C21FC01EC031
S11300201DC0E6C11BC011241FBECFE5D4E0DEBF56
S1130030CDBF11E0A0E6B0E0E6EBF0E102C0059030
S11300400D92AE30B107D9F722E0AEE0B1E001C0C5
S11300501D92A231B207E1F711D42BC8D1CF662388
S113006099F0DC01ED91FC91119721E030E0A901B8
S113007012960C9002C0440F551F0A94E2F7CA016D
S11300809081892B80830895DC01ED91FC91119777
S113009021E030E0A90112960C9002C0440F551FD4
S11300A00A94E2F7CA018095908189238083089598
S11300B0FC0130812181613099F018F06230F1F057
S11300C0089581E090E0028002C0880F991F0A948D
S11300D0E2F7E32FF22F809592918923808308958C
S11300E081E090E0028002C0880F991F0A94E2F731
S11300F0E32FF22F9291892B8083089581E090E081
S1130100AC01028002C0440F551F0A94E2F7A32FEA
S1130110B22F40952E9142234C93A081B18102804D
S113012002C0880F991F0A94E2F780959C91892355
S11301308C93089580910E01806180930E018091CB
S11301400F01816180930F0122E030E040E650E02E
S11301506BE082E3C4D121E030E04FE051E06DE098
S113016082E3BDD121E030E04EE051E06FE082E374
S1130170B6D10895982F92959F70990F292F220F29
S1130180220F920F8F70890F08950F931F93CF93AF
S1130190DF93CDB7DEB727970FB6F894DEBF0FBE57
S11301A0CDBF8C0127E030E0AE014F5F5F4F60E0D0
S11301B082E32ED18981DEDFF80180838A81DADF50
S11301C0F80181838B81D6DFF80182838C81878358
S11301D08D81D0DFF80183838E81CCDFF8018483A5
S11301E08F81C8DF90E0F8019683858327960FB648
S11301F0F894DEBF0FBECDBFDF91CF911F910F9159
S113020008959DEC899F912D112496959695969528
S1130210392F330F232F220F220F230F821B20E1AC
S1130220929F800D112408950F931F93CF93DF9312
S1130230CDB7DEB727970FB6F894DEBF0FBECDBF9C
S11302408C01FC018081DDDF8983F8018181D9DFA4
S11302508A83F8018281D5DF8B83F80187818C83BF
S11302608381CFDF8D83F8018481CBDF8E83F80116
S11302708581C7DF8F8327E030E0AE014F5F5F4F9A
S113028060E082E32CD127960FB6F894DEBF0FBE50
S1130290CDBFDF91CF911F910F9108951F920F92BF
S11302A00FB60F9211240F900FBE0F901F90189548
S11302B01F920F920FB60F9211240F900FBE0F9042
S11302C01F901895789487B3866087BB87E790E082
S11302D09BBD8ABD87E890E099BD88BD8FB5816BD1
S11302E08FBD8EB581608EBD089585EA86BF80E09E
S11302F090E005C00196803426E0920730F4209106
S113030062002830B9F780E0089581E0089585E916
S113031086BF089585EA86BF80E090E005C0019617
S1130320803426E0920730F4209162002031B9F73E
S113033080E0089581E0089585E886BF80E090E03C
S113034005C00196803426E0920730F420916200C3
S11303502831B9F780E0089581E0089585E886BFE3
S113036080E090E005C00196803426E0920730F4E6
S1130370209162002832B9F780E0089581E0089561
S113038085E886BF80E090E005C00196803426E0D1
S1130390920730F4209162002034B9F780E0089588
S11303A081E00895882381F085EC86BF80E090E0A9
S11303B005C00196803426E09207B0F420916200D3
S11303C02035B9F780E0089585E886BF80E090E0A5
S11303D005C00196803426E0920740F42091620023
S11303E02835B9F780E0089581E0089581E0089503
S11303F01F920F920FB60F9211248F9381B1887FB1
S1130400809362008F910F900FBE0F901F901895EC
S1130410CF92DF92EF92FF920F931F93CF93D82E38
S1130420C62E7A01890161DFC82F882319F06FDF96
S11304308C2F4DC08D2D880F83B97EDFC82F882364
S113044019F065DF8C2F43C0C3B888DFC82F882319
S113045019F05DDF8C2F3BC05DDFC82F882319F0B6
S113046056DF8C2F34C08D2D90E0880F991F81604A
S113047083B986DFC82F8823A1F049DF8C2F27C0DA
S113048081E090DFC82F882319F041DF8C2F1FC033
S1130490F701EC0DFD1D83B180838FEFC81AD80AD4
S11304A002C0C12CD12CC8010197C816D90640F34B
S11304B080E078DFC82F882319F029DF8C2F07C04C
S11304C0F701EC0DFD1D83B1808321DF8C2FCF91CB
S11304D01F910F91FF90EF90DF90CF900895CF92EE
S11304E0DF92EF92FF920F931F93CF93182F062F53
S11304F06A017901FADEC82F882319F008DF8C2FEE
S113050027C0110F13B918DFC82F882319F0FFDE95
S11305108C2F1EC003B922DFC82F882391F0F7DE89
S11305208C2F16C0F601E00FF11F808183B916DF0E
S1130530C82F882319F0EBDE8C2F0AC00F5F1F4FE2
S113054002C000E010E00E151F0560F3E0DE8C2F02
S1130550CF911F910F91FF90EF90DF90CF9008956E
S11305609B01AC0160E074E284EF90E037D2DA01E1
S1130570C9014097A109B109B695A79597958795A3
S113058080B985E086BF0895809163000895109234
S11305906300109211021092100280E191E008951C
S11305A01F920F920FB60F9211248F939F93EF9384
S11305B0FF93E0911002F09111028CB1E05FFE4FC5
S11305C08083E0911002F0911102E05FFE4F808180
S11305D08D3051F481E080936300E0911002F0913A
S11305E01102EF5EFE4F1082809110029091110271
S11305F001969093110280931002FF91EF919F91C5
S11306008F910F900FBE0F901F9018951F920F920D
S11306100FB60F9211248F9381E0809364008F9121
S11306200F900FBE0F901F901895442329F02BB103
S113063022602BB9A8E001C0A0E1B0E09B01AC01AD
S1130640EFD19B01AC0160E074E284EF90E0C6D18D
S1130650BA01A9014150510961097109DB01CA01BB
S113066088279F70AA27BB27892F9A2FAB2FBB27D8
S113067080BD49B98AB1886D8AB986E880BD08957C
S11306800F931F93CF93DF9300D0CDB7DEB78B01C9
S11306909A838983AE014F5F5F4F62EC70E002D2B0
S11306A0009739F04FE150E0BC01C801ECD1F801EA
S11306B0178EAE014F5F5F4F62EC70E089819A81C3
S11306C0F1D1009741F04FE150E0BC01C8018096A0
S11306D0DAD1F80117AEAE014F5F5F4F62EC70E004
S11306E089819A81DFD1009729F0B0D1F801E05CCB
S11306F0FF4F8083AE014F5F5F4F62EC70E08981F2
S11307009A81D0D1009729F0A1D1F801EF5BFF4F76
S11307108083AE014F5F5F4F62EC70E089819A8104
S1130720C1D1009729F092D1F801EE5BFF4F80838D
S11307300F900F90DF91CF911F910F91089598E042
S11307401DC028B32F7D28BB492F50E041505109CB
S1130750282F30E002C0359527954A95E2F720FF0F
S113076004C028B3286028BB03C028B3277F28BB54
S1130770000028B3206228BB000091509111E1CF02
S11307800895CF93C82F88B3816088BB000088B3D5
S11307908E7F88BB88EFD3DF8C2FD1DF88B3816055
S11307A088BB000088B38E7F88BBCF910895CF9318
S11307B0C82F88B3816088BB000088B38E7F88BB54
S11307C08AEFBDDF8C2FBBDF88B3816088BB00005C
S11307D088B38E7F88BBCF910895CF93DF9385B381
S11307E08E7F85BB8FE39CE90197F1F700C0000081
S11307F085B3816085BB85B38D7F85BB88E3C1DF0D
S113080081E0BFDF80E0D3DF8CE0BBDF80E8B9DFCD
S1130810C0E0D0E003C08FEFCADF2196C034D10519
S1130820D4F381E0AEDF85B3826085BBDF91CF91E5
S11308300895823009F4605C85B38D7F85BB862F73
S113084080689FDF85B3826085BB08950F931F93F3
S1130850CF93DF938C01C0E0D0E0F801EC0FFD1FD3
S11308608081A5DF2196F801EC0FFD1F80818111A5
S1130870F4CFDF91CF911F910F910895789440E0C8
S113088060E076E980E090E0D0DE60E87AE186E03E
S113089090E066DE61E08FEB90E00ADC60E08FEBD5
S11308A090E0DDDB61E08CEB90E002DC61E08CEB5E
S11308B090E0D5DB61E089EB90E0FADB60E089EB66
S11308C090E0CDDB61E086EB90E0F2DB60E086EB6C
S11308D090E0C5DB61E083EB90E0EADB61E083EB71
S11308E090E0BDDB61E080EB90E0E2DB61E080EB77
S11308F090E0B5DB2FEF89E698E1215080409040ED
S1130900E1F700C0000080E090E0DCDC85E690E0E8
S11309108BDC60E070E085E690E00CDC5EDF60E09C
S113092081E087DF84EC90E091DF60E082E081DFAA
S113093087ED90E08BDF2FEF85EE9AEA215080401F
S11309409040E1F700C00000C0E01EDE882321F0E3
S11309501EDE6DE670E094DE2FE788E391E021501F
S113096080409040E1F700C00000CF5FCF3068F3D3
S113097085E690E00ADCE5E6F0E0448133812081FD
S11309809181828156815F9355815F931F924F932A
S11309901F923F931F922F931F929F931F928F93A7
S11309A08CEE90E09F938F938DE690E09F938F93CE
S11309B0A8D060E081E03DDF8DE690E047DF60E0B5
S11309C082E037DF8DE890E041DF8DB79EB7409637
S11309D00FB6F8949EBF0FBE8DBFB6CFA1E21A2EFC
S11309E0AA1BBB1BFD010DC0AA1FBB1FEE1FFF1FCF
S11309F0A217B307E407F50720F0A21BB30BE40B1F
S1130A00F50B661F771F881F991F1A9469F7609565
S1130A107095809590959B01AC01BD01CF0108951F
S1130A2009D0A59F900DB49F900DA49F800D911D9A
S1130A3011240895A29FB001B39FC001A39F01D0C8
S1130A40B29F700D811D1124911D0895FC0188270A
S1130A509927E89421912032E9F3293010F02E30BF
S1130A60C8F32B3239F02D3231F4689403C041D0ED
S1130A70820F911D219120532A30C8F31EF49095C2
S1130A8081959F4F0895FB01DC014150504048F08F
S1130A9001900D920020C9F701C01D9241505040B1
S1130AA0E0F70895FA01A191B081009719F4109725
S1130AB0E1F0CD01DC01CD010D90002011F4C00165
S1130AC013C0FB012191222319F02015D9F7F3CF8C
S1130AD0FB012191201519F41E92119606C02223C0
S1130AE0C1F70D900020A1F7D001FA01A193B083C2
S1130AF008957AE0979F902D879F802D910D112462
S1130B000895AEE0B0E0E6E8F5E0AAC20D891E89DA
S1130B1086E08C831A8309838FEF9FE79E838D83FE
S1130B20AE01475E5F4F6F89788DCE01019608D084
S1130B30EF81F885E00FF11F10822E96E4E0ACC23D
S1130B40ABE0B0E0E5EAF5E07DC26C017B018A012F
S1130B50FC0117821682838181FFBFC1CE010196F9
S1130B603C01F6019381F70193FD859193FF8191F7
S1130B707F01882309F4ADC1853239F493FD859151
S1130B8093FF81917F01853221F4B60190E0C0D1B9
S1130B90E8CF912C212C312CFFE1F315D8F08B32C6
S1130BA079F038F4803279F08332A1F4232D206176
S1130BB01DC08D3261F0803369F4232D216016C08D
S1130BC0832D8260382EE32DE4603E2E2AC0F32D5F
S1130BD0F8601DC037FC2DC020ED280F2A3040F0EE
S1130BE08E32B9F436FC75C1232D2064322E19C01F
S1130BF036FE06C08AE0989E200D1124922E11C064
S1130C00EAE02E9E200D1124222EF32DF0623F2EB9
S1130C1008C08C3621F4832D8068382E02C08836B3
S1130C2041F4F70193FD859193FF81917F01811137
S1130C30B3CF982F9F7D9554933028F40C5F1F4FAA
S1130C409FE399830DC0833631F0833771F0833588
S1130C5009F055C020C0F801808189830E5F1F4FC1
S1130C6088248394912C530112C02801F2E04F0E82
S1130C70511CF801A080B18036FE03C0692D70E0DC
S1130C8002C06FEF7FEFC50138D14C018201F32D13
S1130C90FF773F2E15C0280122E0420E511CF801B7
S1130CA0A080B18036FE03C0692D70E002C06FEFF2
S1130CB07FEFC50117D14C01F32DF0683F2E82015F
S1130CC033FC19C0822D90E088169906A0F4B60171
S1130CD080E290E01DD12A94F5CFF50137FC85918F
S1130CE037FE81915F01B60190E012D121102A9460
S1130CF021E0821A91088114910479F7E1C08436C5
S1130D0011F0893639F5F80137FE07C06081718129
S1130D10828193810C5F1F4F08C060817181072E0F
S1130D20000C880B990B0E5F1F4FF32DFF763F2E9F
S1130D3097FF09C090958095709561957F4F8F4F6F
S1130D409F4FF0683F2E2AE030E0A3011DD1882E8A
S1130D50861844C0853731F4232D2F7EB22E2AE025
S1130D6030E025C0932D997FB92E8F36C1F018F449
S1130D70883579F0AEC0803719F0883721F0A9C0E2
S1130D80E92FE061BE2EB4FE0DC0FB2DF460BF2E32
S1130D9009C034FE0AC0292F2660B22E06C028E0FE
S1130DA030E005C020E130E002C020E132E0F8018B
S1130DB0B7FE07C060817181828193810C5F1F4FF0
S1130DC006C06081718180E090E00E5F1F4FA30137
S1130DD0DBD0882E8618FB2DFF773F2E36FE0DC004
S1130DE0232D2E7FA22E891458F434FE0BC032FC1E
S1130DF009C0832D8E7EA82E05C0B82CA32C03C059
S1130E00B82C01C0B92CA4FE0FC0FE01E80DF11DE1
S1130E108081803321F49A2D997EA92E09C0A2FEE7
S1130E2006C0B394B39404C08A2D867809F0B394B1
S1130E30A3FC10C0A0FE06C0B21480F4280C922CAF
S1130E409B180DC0B21458F4B60180E290E060D053
S1130E50B394F8CFB21418F42B1802C0982C212C98
S1130E60A4FE0FC0B60180E390E052D0A2FE16C0EB
S1130E70A1FC03C088E790E002C088E590E0B601D9
S1130E800CC08A2D867851F0A1FE02C08BE201C00D
S1130E9080E2A7FC8DE2B60190E03AD0891430F4E8
S1130EA0B60180E390E034D09A94F8CF8A94F301A9
S1130EB0E80DF11D8081B60190E02AD08110F6CFB3
S1130EC0222009F44ECEB60180E290E021D02A948B
S1130ED0F7CFF6018681978102C08FEF9FEF2B96A3
S1130EE0E2E1CCC0FC010590615070400110D8F7DC
S1130EF0809590958E0F9F1F0895FC01615070405E
S1130F0001900110D8F7809590958E0F9F1F08953A
S1130F100F931F93CF93DF93FB01238121FD03C024
S1130F208FEF9FEF2CC022FF16C04681578124818A
S1130F3035814217530744F4A081B1819D012F5F8D
S1130F403F4F318320838C93268137812F5F3F4F1E
S1130F503783268314C08B01EC01FB010084F185E7
S1130F60E02D0995892BE1F6D80116968D919C9177
S1130F701797019617969C938E931697CE01DF913F
S1130F80CF911F910F910895FA01AA27283051F1AA
S1130F90203181F1E8946F936E7F6E5F7F4F8F4FA6
S1130FA09F4FAF4FB1E03ED0B4E03CD0670F781F05
S1130FB0891F9A1FA11D680F791F8A1F911DA11DEA
S1130FC06A0F711D811D911DA11D20D009F4689423
S1130FD03F912AE0269F11243019305D3193DEF6CB
S1130FE0CF010895462F4770405D4193B3E00FD081
S1130FF0C9F7F6CF462F4F70405D4A3318F0495D6C
S113100031FD4052419302D0A9F7EACFB4E0A6954E
S11310109795879577956795BA95C9F70097610570
S1131020710508959B01AC010A2E069457954795C6
S113103037952795BA95C9F7620F731F841F951FBB
S1131040A01D08952F923F924F925F926F927F92CC
S11310508F929F92AF92BF92CF92DF92EF92FF92C4
S11310600F931F93CF93DF93CDB7DEB7CA1BDB0B70
S11310700FB6F894DEBF0FBECDBF09942A88398815
S113108048885F846E847D848C849B84AA84B9841C
S1131090C884DF80EE80FD800C811B81AA81B98128
S11310A0CE0FD11D0FB6F894DEBF0FBECDBFED013C
S10910B00895F894FFCF3F
S11310B64000F801010034101B0A17000649766146
S11310C66E205072696E74732070726F6A656374F1
S11310D6000000000000000000000000004D6573E1
S11310E6736167652066726F6D205043202140232B
S11310F624000000000000000000000000020202BC
S11311063200053800053800033800003500003584
S113111600012F006769746875622E636F6D2F7600
S1131126616E7961703100626175643A33383430C6
S113113630203E20456E6A6F793A290025303264A4
S11311463A253032643A2530326420202530326420
S11111562D253032642D3230253032640000F5
S9030000FC
