:100000000C945A000C943B040C9477000C947700E9
:100010000C9477000C9477000C9477000C94770084
:100020000C9477000C9477000C9477000C94770074
:100030000C9477000C9477000C9477000C94770064
:100040000C9477000C9477000C9448030C94770080
:100050000C947F030C9479000C9477000C94770037
:100060000C9410010C9477000C9477000C9477009A
:100070000C9477000C9477000C9477000C94770024
:100080000C9477000C9477000C9477000C94770014
:100090000C9477000C9477000C9477000C94F90082
:1000A0000C9401020C9477000C9477000C94770068
:1000B0000C94770011241FBECFEFD8E0DEBFCDBF78
:1000C00011E0A0E0B1E0E2E6F0E102C005900D929F
:1000D000A23AB107D9F722E0A2EAB1E001C01D922D
:1000E000A633B207E1F70E944A040C942F080C943F
:1000F00000001F920F920FB60F9211248F9381E090
:10010000809300018F910F900FBE0F901F90189554
:100110008091A20180618093A2018091A3018161FD
:100120008093A30122E030E041E051E06BE082E304
:100130000E94E20221E030E043EA51E06DE082E318
:100140000E94E20221E030E042EA51E06FE082E307
:100150000E94E2020895982F92959F70990F292F7F
:10016000220F220F920F8F70890F08950F931F9304
:10017000CF93DF93CDB7DEB727970FB6F894DEBFE6
:100180000FBECDBF8C0127E030E0AE014F5F5F4F67
:1001900060E082E30E94670289810E94AB00F8015F
:1001A00080838A810E94AB00F80181838B810E9449
:1001B000AB00F80182838C8187838D810E94AB0024
:1001C000F80183838E810E94AB00F80184838F81C4
:1001D0000E94AB0090E0F8019683858327960FB6C6
:1001E000F894DEBF0FBECDBFDF91CF911F910F916D
:1001F00008951F920F920FB60F9211248F93809142
:10020000AD0086FF04C081E08093A40103C081E0BB
:100210008093A4018F910F900FBE0F901F9018959F
:100220001F920F920FB60F9211248F93EF93FF93AB
:100230008091B900887F80930301883A11F128F4F6
:10024000803841F0803AB9F040C0883B59F1803C99
:10025000D1F13BC080912D02E0912E02F0912F024E
:10026000E80FF11D8091BB00808380912D028F5F8C
:1002700080932D022AC081E08093A50110922D0267
:1002800024C080912D02E0912E02F0912F02E80F00
:10029000F11D80818093BB0080912D028F5F809340
:1002A0002D0213C080912D02E0912E02F0912F02B9
:1002B000E80FF11D80818093BB0080912D028F5F3C
:1002C00080932D0202C010922D028091A6018823F6
:1002D00029F0ECEBF0E0808180688083FF91EF9162
:1002E0008F910F900FBE0F901F90189585EA809305
:1002F000DC0080E090E005C00196803426E09207A3
:1003000030F4209104012830B9F780E0089581E0AD
:10031000089585E98093DC00089585EA8093DC00E8
:1003200080E090E005C00196803426E0920730F42A
:10033000209104012031B9F780E0089581E008950B
:1003400085E88093DC0080E090E005C00196803471
:1003500026E0920730F4209104012831B9F780E0BB
:10036000089581E0089585E88093DC0080E090E0C6
:1003700005C00196803426E0920730F420910401F4
:100380002832B9F780E0089581E0089585E88093E8
:10039000DC0080E090E005C00196803426E0920702
:1003A00030F4209104012034B9F780E0089581E011
:1003B0000895882389F085EC8093DC0080E090E04C
:1003C00005C00196803426E09207B8F4209104011C
:1003D0002035B9F780E0089585E88093DC0080E05F
:1003E00090E005C00196803426E0920740F4209109
:1003F00004012835B9F780E0089581E0089581E08F
:1004000008951F920F920FB60F9211248F93EF93BE
:10041000FF938091D900887F80930401883A11F17D
:1004200028F4803841F0803AB9F040C0883B59F157
:10043000803CD1F13BC080912D02E0912E02F091E1
:100440002F02E80FF11D8091DB00808380912D0247
:100450008F5F80932D022AC081E08093A7011092C4
:100460002D0224C080912D02E0912E02F0912F02E6
:10047000E80FF11D80818093DB0080912D028F5F5A
:1004800080932D0213C080912D02E0912E02F091F5
:100490002F02E80FF11D80818093DB0080912D02F7
:1004A0008F5F80932D0202C010922D028091A801CF
:1004B000882329F0ECEDF0E0808180688083FF9153
:1004C000EF918F910F900FBE0F901F901895CF92C4
:1004D000DF92EF92FF920F931F93CF93D82EC62EE9
:1004E0007A0189010E947601C82F882321F00E9499
:1004F00089018C2F5FC08D2D880F8093DB000E94B7
:10050000A001C82F882321F00E9489018C2F52C09E
:10051000C092DB000E94B301C82F882321F00E9403
:1005200089018C2F47C00E948D01C82F882321F09C
:100530000E9489018C2F3EC08D2D90E0880F991F5D
:1005400081608093DB000E94C601C82F8823C1F020
:100550000E9489018C2F2EC081E00E94D901C82FF2
:10056000882321F00E9489018C2F24C0F701EC0D13
:10057000FD1D8091DB0080838FEFC81AD80A02C06E
:10058000C12CD12CC8010197C816D90628F380E0E8
:100590000E94D901C82F882321F00E9489018C2F45
:1005A00009C0F701EC0DFD1D8091DB0080830E94E6
:1005B00089018C2FCF911F910F91FF90EF90DF90C9
:1005C000CF900895CF92DF92EF92FF920F931F93F7
:1005D000CF93182F062F6A0179010E947601C82F48
:1005E000882321F00E9489018C2F31C0110F1093B4
:1005F000DB000E94A001C82F882321F00E948901FE
:100600008C2F25C00093DB000E94B301C82F8823E4
:10061000B1F00E9489018C2F1AC0F601E00FF11F82
:1006200080818093DB000E94B301C82F882321F0D2
:100630000E9489018C2F0BC00F5F1F4F02C000E08A
:1006400010E00E151F0548F30E9489018C2FCF91F1
:100650001F910F91FF90EF90DF90CF9008959B0135
:10066000AC011092A80160E074E284EF90E00E9477
:10067000F304DA01C9014097A109B109B695A7951C
:10068000979587958093D80085E08093DC00089546
:100690001F920F920FB60F9211248F939F93EF9397
:1006A000FF93E0912902F0912A028091C600E7555C
:1006B000FE4F8083E0912902F0912A02E755FE4F18
:1006C00080818D3051F481E080930501E091290211
:1006D000F0912A02E655FE4F1082809129029091F6
:1006E0002A02019690932A0280932902FF91EF91AA
:1006F0009F918F910F900FBE0F901F9018951F9292
:100700000F920FB60F9211248F9381E08093060110
:100710008F910F900FBE0F901F901895442339F0C2
:10072000E0ECF0E0208122602083A8E001C0A0E19D
:10073000B0E09B01AC010E9415059B01AC0160E09B
:1007400074E284EF90E00E94F304BA01A9014150E1
:10075000510961097109DB01CA0188279F70AA2725
:10076000BB27892F9A2FAB2FBB278093C5004093BF
:10077000C400E1ECF0E08081886D808386E880939E
:10078000C2000895909106019923E1F310920601A9
:100790008093C60008959091C80095FFFCCF809388
:1007A000CE000895CF93DF93C82FD62F8FE10E94FC
:1007B000CB0384E20E94CB038D2F0E94CB038C2FAE
:1007C0000E94CB03DF91CF910895CF93C82F8FE183
:1007D0000E94CB0388E50E94CB038C2F0E94CB03A1
:1007E000CF910895CF93DF93C82F853108F0C4E1EE
:1007F000D1E0611101C0D0E08FE10E94CB0383E220
:100800000E94CB038D2F0E94CB038C2F0E94CB0321
:10081000DF91CF9108958FE10E94CB038CE00E947D
:10082000CB03089583E38093CC001092CD00E9ECD4
:10083000F0E080818860808386E08093CA000E9417
:100840000B0408950F931F93CF93DF938C01C0E0A7
:10085000D0E0F801EC0FFD1F80810E94CB032196B0
:10086000F801EC0FFD1F80818111F3CFDF91CF9153
:100870001F910F9108951F920F920FB60F9211249E
:100880008F9381E080932C028F910F900FBE0F9079
:100890001F90189541E060E076E980E090E00E94CA
:1008A0008E0360E87AE186E090E00E942F030E94C8
:1008B000120478948AE391E0909333028093320299
:1008C000E9E6F0E080818260808381E08DBB60E0BA
:1008D00070E082E391E00E94880088E491E09F93B9
:1008E0008F930E942F050F900F9080912C028823E8
:1008F000E1F382E391E00E94B60010922C02C2E381
:10090000D1E0288199818A811F922F931F929F9312
:100910001F928F938EE491E09F938F930E942F05F7
:100920004C813B81288199818A815E815F935D81C1
:100930005F931F924F931F923F931F922F931F928B
:100940009F931F928F9385E691E09F938F9388E00A
:1009500091E09F938F930E94450580912B021F92F7
:100960008F93809107011F928F9387E891E09F9367
:100970008F938DE191E09F938F930E9445058DB7F2
:100980009EB780960FB6F8949EBF0FBE8DBF61E0F4
:1009900081E00E94D20388E091E00E94220461E09D
:1009A00082E00E94D2038DE191E00E9422048091B6
:1009B0002B028F5F80932B02843158F010922B0210
:1009C00080910701882311F080E001C081E08093CD
:1009D00007016091070180912B020E94F20384E0DD
:1009E0000E94E50382CFA1E21A2EAA1BBB1BFD01C8
:1009F0000DC0AA1FBB1FEE1FFF1FA217B307E407FE
:100A0000F50720F0A21BB30BE40BF50B661F771F55
:100A1000881F991F1A9469F7609570958095909535
:100A20009B01AC01BD01CF0108950E942005A59F47
:100A3000900DB49F900DA49F800D911D11240895D9
:100A4000A29FB001B39FC001A39F700D811D11240F
:100A5000911DB29F700D811D1124911D0895A0E07C
:100A6000B0E0E5E3F5E00C940808AE014B5F5F4FA2
:100A7000FA0161917191AF0180913202909133023C
:100A80000E946705E2E00C942408AEE0B0E0EBE4DD
:100A9000F5E00C9406080D891E8986E08C831A8384
:100AA00009838FEF9FE79E838D83AE01475E5F4F83
:100AB0006F89788DCE0101960E946705EF81F885D8
:100AC000E00FF11F10822E96E4E00C942208ABE0B8
:100AD000B0E0EDE6F5E00C94F8076C017B018A01CB
:100AE000FC0117821682838181FFCCC1CE01019661
:100AF0003C01F6019381F70193FD859193FF81916C
:100B00007F01882309F4BAC1853239F493FD8591B8
:100B100093FF81917F01853229F4B60190E00E9414
:100B20005E07E7CF912C212C312CFFE1F315D8F093
:100B30008B3279F038F4803279F08332A1F4232DAE
:100B400020611DC08D3261F0803369F4232D216056
:100B500016C0832D8260382EE32DE4603E2E2AC01D
:100B6000F32DF8601DC037FC2DC020ED280F2A3072
:100B700040F08E32B9F436FC81C1232D2064322E30
:100B800019C036FE06C08AE0989E200D1124922ED0
:100B900011C0EAE02E9E200D1124222EF32DF062CA
:100BA0003F2E08C08C3621F4832D8068382E02C079
:100BB000883641F4F70193FD859193FF81917F0180
:100BC0008111B3CF982F9F7D9554933028F40C5FFB
:100BD0001F4F9FE399830DC0833631F0833771F047
:100BE000833509F059C021C0F801808189830E5FE7
:100BF0001F4F88248394912C530113C02801F2E0E5
:100C00004F0E511CF801A080B18036FE03C0692D43
:100C100070E002C06FEF7FEFC5010E9453074C01E7
:100C20008201F32DFF773F2E16C0280122E0420EED
:100C3000511CF801A080B18036FE03C0692D70E020
:100C400002C06FEF7FEFC5010E9448074C01F32DF2
:100C5000F0683F2E820133FC1BC0822D90E0881685
:100C60009906B0F4B60180E290E00E945E072A94F3
:100C7000F4CFF50137FC859137FE81915F01B60114
:100C800090E00E945E0721102A9421E0821A9108C8
:100C90008114910471F7E8C0843611F0893641F56A
:100CA000F80137FE07C060817181828193810C5FFA
:100CB0001F4F08C060817181072E000C880B990BB3
:100CC0000E5F1F4FF32DFF763F2E97FF09C09095C3
:100CD0008095709561957F4F8F4F9F4FF0683F2EA5
:100CE0002AE030E0A3010E949A07882E861845C0AA
:100CF000853731F4232D2F7EB22E2AE030E025C037
:100D0000932D997FB92E8F36C1F018F4883579F07C
:100D1000B5C0803719F0883721F0B0C0E92FE06105
:100D2000BE2EB4FE0DC0FB2DF460BF2E09C034FEF4
:100D30000AC0292F2660B22E06C028E030E005C088
:100D400020E130E002C020E132E0F801B7FE07C048
:100D500060817181828193810C5F1F4F06C0608129
:100D6000718180E090E00E5F1F4FA3010E949A07FF
:100D7000882E8618FB2DFF773F2E36FE0DC0232DC3
:100D80002E7FA22E891458F434FE0BC032FC09C009
:100D9000832D8E7EA82E05C0B82CA32C03C0B82CA2
:100DA00001C0B92CA4FE0FC0FE01E80DF11D808129
:100DB000803321F49A2D997EA92E09C0A2FE06C087
:100DC000B394B39404C08A2D867809F0B394A3FC3D
:100DD00011C0A0FE06C0B21488F4280C922C9B18F7
:100DE0000EC0B21460F4B60180E290E00E945E078B
:100DF000B394F7CFB21418F42B1802C0982C212CFE
:100E0000A4FE10C0B60180E390E00E945E07A2FE3F
:100E100017C0A1FC03C088E790E002C088E590E01D
:100E2000B6010CC08A2D867859F0A1FE02C08BE273
:100E300001C080E2A7FC8DE2B60190E00E945E074F
:100E4000891438F4B60180E390E00E945E079A941A
:100E5000F7CF8A94F301E80DF11D8081B60190E08F
:100E60000E945E078110F5CF222009F442CEB60120
:100E700080E290E00E945E072A94F6CFF601868118
:100E8000978102C08FEF9FEF2B96E2E10C9414083C
:100E9000FC010590615070400110D8F78095909545
:100EA0008E0F9F1F0895FC0161507040019001104A
:100EB000D8F7809590958E0F9F1F08950F931F93DD
:100EC000CF93DF93FB01238121FD03C08FEF9FEFC1
:100ED0002CC022FF16C046815781248135814217DC
:100EE000530744F4A081B1819D012F5F3F4F3183AF
:100EF00020838C93268137812F5F3F4F3783268352
:100F000014C08B01EC01FB010084F185E02D0995F3
:100F1000892BE1F6D80116968D919C911797019631
:100F200017969C938E931697CE01DF91CF911F91C8
:100F30000F910895FA01AA27283051F1203181F14B
:100F4000E8946F936E7F6E5F7F4F8F4F9F4FAF4FD1
:100F5000B1E03ED0B4E03CD0670F781F891F9A1FE4
:100F6000A11D680F791F8A1F911DA11D6A0F711D98
:100F7000811D911DA11D20D009F468943F912AE0A4
:100F8000269F11243019305D3193DEF6CF0108958C
:100F9000462F4770405D4193B3E00FD0C9F7F6CFBD
:100FA000462F4F70405D4A3318F0495D31FD405285
:100FB000419302D0A9F7EACFB4E0A695979587951B
:100FC00077956795BA95C9F70097610571050895FA
:100FD0009B01AC010A2E06945795479537952795A6
:100FE000BA95C9F7620F731F841F951FA01D08953E
:100FF0002F923F924F925F926F927F928F929F9229
:10100000AF92BF92CF92DF92EF92FF920F931F9316
:10101000CF93DF93CDB7DEB7CA1BDB0B0FB6F894C7
:10102000DEBF0FBECDBF09942A88398848885F8407
:101030006E847D848C849B84AA84B984C884DF8078
:10104000EE80FD800C811B81AA81B981CE0FD11D5C
:101050000FB6F894DEBF0FBECDBFED010895F89432
:02106000FFCFC0
:10106200014000F8F80101014976616E2050726971
:101072006E74732070726F6A65637400004D6573DD
:10108200736167652066726F6D2050432021402393
:101092002400001D140302180006000000020000D4
:1010A2000000C2030000000052554E0A0D004461C8
:1010B20074653A20253032643A253032643A25305C
:1010C20032640A0D00253032643A253032643A2502
:1010D2003032642020253032642D253032642D32A6
:1010E20030253032640D004D79206D657373616770
:1010F20065205E2920253164202530326420200DB0
:021102000000EB
:00000001FF
