S01B00006D33323870625F757362435F706C75735F52462E7372656327
S11300000C945A000C9446050C9477000C947700D9
S11300100C9477000C9477000C9477000C94770080
S11300200C9477000C9477000C9477000C94770070
S11300300C9477000C9477000C9477000C94770060
S11300400C9477000C9477000C94A8030C9477001C
S11300500C94D9030C9479000C9477000C947700D9
S11300600C9464010C9477000C9477000C94770042
S11300700C9477000C9477000C9477000C94770020
S11300800C9477000C9477000C9477000C94770010
S11300900C9477000C9477000C9477000C944D0129
S11300A00C9455020C9477000C9477000C94770010
S11300B00C94770011241FBECFEFD8E0DEBFCDBF74
S11300C011E0A0E0B1E0E2E8F3E102C005900D9296
S11300D0A839B107D9F722E0A8E9B1E001C01D921F
S11300E0A833B207E1F70E9455050C94BF090C949C
S11300F000001F920F920FB60F9211248F9381E08C
S1130100809300018F910F900FBE0F901F90189550
S113011080919A01806180939A0180919B01816111
S113012080939B0122E030E041E051E06BE082E308
S11301300E94360321E030E04BE951E06DE082E3B8
S11301400E94360321E030E04AE951E06FE082E3A7
S11301500E9436030895982F92959F70990F292F26
S1130160220F220F920F8F70890F08950F931F9300
S1130170CF93DF93CDB7DEB727970FB6F894DEBFE2
S11301800FBECDBF8C0127E030E0AE014F5F5F4F63
S113019060E082E30E94BB0289810E94AB00F80107
S11301A080838A810E94AB00F80181838B810E9445
S11301B0AB00F80182838C8187838D810E94AB0020
S11301C0F80183838E810E94AB00F80184838F81C0
S11301D00E94AB0090E0F8019683858327960FB6C2
S11301E0F894DEBF0FBECDBFDF91CF911F910F9169
S11301F008959DEC899F912D112496959695969539
S1130200392F330F232F220F220F230F821B20E1BC
S1130210929F800D112408950F931F93CF93DF9322
S1130220CDB7DEB727970FB6F894DEBF0FBECDBFAC
S11302308C01FC0180810E94F9008983F80181818D
S11302400E94F9008A83F80182810E94F9008B835D
S1130250F80187818C8383810E94F9008D83F801E2
S113026084810E94F9008E83F80185810E94F9003F
S11302708F8327E030E0AE014F5F5F4F60E082E3A1
S11302800E94360327960FB6F894DEBF0FBECDBF8B
S1130290DF91CF911F910F9108951F920F920FB686
S11302A00F9211248F938091AD0086FF04C081E0EA
S11302B080939C0103C081E080939C018F910F90F7
S11302C00FBE0F901F9018951F920F920FB60F92AA
S11302D011248F93EF93FF938091B900887F8093CB
S11302E00301883A11F128F4803841F0803AB9F0DA
S11302F040C0883B59F1803CD1F13BC0809127023A
S1130300E0912802F0912902E80FF11D8091BB00D1
S11303108083809127028F5F809327022AC081E027
S113032080939D011092270224C080912702E091BE
S11303302802F0912902E80FF11D80818093BB000F
S1130340809127028F5F8093270213C08091270238
S1130350E0912802F0912902E80FF11D8081809339
S1130360BB00809127028F5F8093270202C0109206
S1130370270280919E01882329F0ECEBF0E0808134
S113038080688083FF91EF918F910F900FBE0F9043
S11303901F90189585EA8093DC0080E090E005C00A
S11303A00196803426E0920730F42091040128302D
S11303B0B9F780E0089581E0089585E98093DC0031
S11303C0089585EA8093DC0080E090E005C0019602
S11303D0803426E0920730F4209104012031B9F7EB
S11303E080E0089581E0089585E88093DC0080E052
S11303F090E005C00196803426E0920730F4209105
S113040004012831B9F780E0089581E0089585E872
S11304108093DC0080E090E005C00196803426E003
S1130420920730F4209104012832B9F780E008954E
S113043081E0089585E88093DC0080E090E005C0C9
S11304400196803426E0920730F420910401203490
S1130450B9F780E0089581E00895882389F085EC58
S11304608093DC0080E090E005C00196803426E0B3
S11304709207B8F4209104012035B9F780E008957B
S113048085E88093DC0080E090E005C0019680342C
S113049026E0920740F4209104012835B9F780E062
S11304A0089581E0089581E008951F920F920FB698
S11304B00F9211248F93EF93FF938091D900887F3B
S11304C080930401883A11F128F4803841F0803A8D
S11304D0B9F040C0883B59F1803CD1F13BC08091D8
S11304E02702E0912802F0912902E80FF11D809182
S11304F0DB008083809127028F5F809327022AC0CC
S113050081E080939F011092270224C080912702EA
S1130510E0912802F0912902E80FF11D8081809377
S1130520DB00809127028F5F8093270213C08091A4
S11305302702E0912802F0912902E80FF11D808141
S11305408093DB00809127028F5F8093270202C093
S1130550109227028091A001882329F0ECEDF0E0AD
S1130560808180688083FF91EF918F910F900FBEFF
S11305700F901F901895CF92DF92EF92FF920F93F6
S11305801F93CF93D82EC62E7A0189010E94CA01E7
S1130590C82F882321F00E94DD018C2F5FC08D2D90
S11305A0880F8093DB000E94F401C82F882321F078
S11305B00E94DD018C2F52C0C092DB000E94070212
S11305C0C82F882321F00E94DD018C2F47C00E9490
S11305D0E101C82F882321F00E94DD018C2F3EC049
S11305E08D2D90E0880F991F81608093DB000E941D
S11305F01A02C82F8823C1F00E94DD018C2F2EC05F
S113060081E00E942D02C82F882321F00E94DD0181
S11306108C2F24C0F701EC0DFD1D8091DB0080833D
S11306208FEFC81AD80A02C0C12CD12CC801019777
S1130630C816D90628F380E00E942D02C82F88230B
S113064021F00E94DD018C2F09C0F701EC0DFD1D86
S11306508091DB0080830E94DD018C2FCF911F915C
S11306600F91FF90EF90DF90CF900895CF92DF929B
S1130670EF92FF920F931F93CF93182F062F6A01C7
S113068079010E94CA01C82F882321F00E94DD014C
S11306908C2F31C0110F1093DB000E94F401C82F7E
S11306A0882321F00E94DD018C2F25C00093DB00FC
S11306B00E940702C82F8823B1F00E94DD018C2F0D
S11306C01AC0F601E00FF11F80818093DB000E94C5
S11306D00702C82F882321F00E94DD018C2F0BC054
S11306E00F5F1F4F02C000E010E00E151F0548F316
S11306F00E94DD018C2FCF911F910F91FF90EF90FD
S1130700DF90CF9008959B01AC011092A00160E0AE
S113071074E284EF90E00E941406DA01C901409764
S1130720A109B109B695A795979587958093D800A7
S113073085E08093DC00089580910501089510926E
S11307400501109224021092230281EA91E0089597
S11307501F920F920FB60F9211248F939F93EF93D2
S1130760FF938091C6008A3059F481E0809305019B
S1130770E0912302F0912402EE55FE4F108210C046
S1130780E0912302F0912402EF55FE4F8083809183
S113079023029091240201969093240280932302D1
S11307A0FF91EF919F918F910F900FBE0F901F902B
S11307B018951F920F920FB60F9211248F9381E018
S11307C0809306018F910F900FBE0F901F90189584
S11307D0442339F0E0ECF0E0208122602083A8E09B
S11307E001C0A0E1B0E09B01AC010E9436069B0170
S11307F0AC0160E074E284EF90E00E941406BA0158
S1130800A9014150510961097109DB01CA01882715
S11308109F70AA27BB27892F9A2FAB2FBB278093C2
S1130820C5004093C400E1ECF0E08081886D8083D2
S113083086E88093C2000895909106019923E1F31C
S1130840109206018093C60008951092240210921B
S11308502302109222021092210280E090E006C04E
S1130860FC01EF55FE4F20E2208301968F3791055E
S1130870B8F380E00895EF92FF920F931F93CF9304
S1130880DF93EC018B017A0101C0219688818D30C0
S1130890E1F38A30D1F344E050E068E471E0CE0142
S11308A00E947306892B69F4BE016C5F7F4F44E19B
S11308B050E0C80145960E948106F80111A683E024
S11308C06EC044E050E06DE471E0CE010E94730616
S11308D0892B41F562E571E0CE0104960E946E0613
S11308E0009709F44FC00E945006F701828362E525
S11308F071E080E090E00E946E06009709F444C025
S11309000E945006F701818362E571E080E090E087
S11309100E946E060097D1F10E945006F701808371
S113092081E03DC044E050E064E571E0CE010E9406
S11309307306892B69F569E571E0CE0104960E947E
S11309406E06009739F10E945006F701838369E52A
S113095071E080E090E00E946E060097E9F00E944A
S11309605006F701848369E571E080E090E00E941D
S11309706E06009799F00E945006F70196838583CE
S113098082E00DC081E00BC081E009C081E007C0B6
S113099084E005C082E003C082E001C082E0DF9110
S11309A0CF911F910F91FF90EF9008959091C800FF
S11309B095FFFCCF8093CE000895CF93DF93C82F8B
S11309C0D62F8FE10E94D60484E20E94D6048D2F94
S11309D00E94D6048C2F0E94D604DF91CF910895F3
S11309E0CF93C82F8FE10E94D60488E50E94D604D5
S11309F08C2F0E94D604CF910895CF93DF93C82FF4
S1130A00853108F0C4E1D1E0611101C0D0E08FE18B
S1130A100E94D60483E20E94D6048D2F0E94D6043D
S1130A208C2F0E94D604DF91CF9108958FE10E940C
S1130A30D6048CE00E94D604089583E38093CC000E
S1130A401092CD00E9ECF0E080818860808386E03C
S1130A508093CA000E94160508950F931F93CF93A5
S1130A60DF938C01C0E0D0E0F801EC0FFD1F808122
S1130A700E94D6042196F801EC0FFD1F808181119C
S1130A80F3CFDF91CF911F910F9108951F920F9291
S1130A900FB60F9211248F9381E0809326028F91D9
S1130AA00F900FBE0F901F90189540E060E076E91C
S1130AB080E090E00E94E80360E87AE186E090E05C
S1130AC00E9483030E941D0578948AE391E0909329
S1130AD0350280933402E9E6F0E08081826080830D
S1130AE081E08DBB60E070E082E391E00E948800C9
S1130AF08BE591E09F938F930E94BF060F900F9018
S1130B0080912602882309F451C082E391E00E9477
S1130B10B60010922602E2E3F1E0448133812081A1
S1130B209181828156815F9355815F931F924F9388
S1130B301F923F931F922F931F929F931F928F9305
S1130B4081E691E09F938F9388E091E09F938F9348
S1130B500E94D50661E081E00E94DD0488E091E016
S1130B600E942D05809125028F5F809325022DB769
S1130B703EB7205F3F4F0FB6F8943EBF0FBE2DBF68
S1130B80843158F01092250280910701882311F0D6
S1130B9080E001C081E080930701609107018091AA
S1130BA025020E94FD0484E00E94F0040E949C033C
S1130BB0882309F4A5CF0E949F03EC018AE292E006
S1130BC00E94B6004AE252E068E071E0CE010E9461
S1130BD03B04C82F0E942504C23071F018F4C130C0
S1130BE031F08ECFC33069F0C430A1F089CF8AE2EE
S1130BF092E00E940C0184CF8AE292E00E940C01F0
S1130C007FCF62E082E00E94DD048DE191E00E94EA
S1130C102D0576CF85E1E2E8F1E0ADE1B1E00190A8
S1130C200D928A95E1F76CCFA1E21A2EAA1BBB1B89
S1130C30FD010DC0AA1FBB1FEE1FFF1FA217B307A4
S1130C40E407F50720F0A21BB30BE40BF50B661FBA
S1130C50771F881F991F1A9469F76095709580957E
S1130C6090959B01AC01BD01CF0108950E944106FE
S1130C70A59F900DB49F900DA49F800D911D1124EC
S1130C800895A29FB001B39FC001A39F700D811D61
S1130C901124911DB29F700D811D1124911D089581
S1130CA0FC0188279927E89421912032E9F329301F
S1130CB010F02E30C8F32B3241F02D3239F4689401
S1130CC004C00E94B706820F911D219120532A303F
S1130CD0C0F31EF4909581959F4F089548E951E023
S1130CE00E9490060895FB01DC014150504030F011
S1130CF08D910190801919F40020B9F7881B990B84
S1130D000895FB01DC014150504048F001900D92E0
S1130D100020C9F701C01D9241505040E0F70895EA
S1130D20FA01A191B081009719F41097E1F0CD0177
S1130D30DC01CD010D90002011F4C00113C0FB01B2
S1130D402191222319F02015D9F7F3CFFB0121912A
S1130D50201519F41E92119606C02223C1F70D9096
S1130D600020A1F7D001FA01A193B08308957AE09D
S1130D70979F902D879F802D910D11240895A0E0B9
S1130D80B0E0E5ECF6E00C949809AE014B5F5F4FE0
S1130D90FA0161917191AF01809134029091350211
S1130DA00E94F706E2E00C94B409AEE0B0E0EBED8B
S1130DB0F6E00C9496090D891E8986E08C831A83CB
S1130DC009838FEF9FE79E838D83AE01475E5F4F5C
S1130DD06F89788DCE0101960E94F706EF81F88520
S1130DE0E00FF11F10822E96E4E00C94B209ABE000
S1130DF0B0E0EDEFF6E00C9488096C017B018A0108
S1130E00FC0117821682838181FFCCC1CE01019639
S1130E103C01F6019381F70193FD859193FF819144
S1130E207F01882309F4BAC1853239F493FD859191
S1130E3093FF81917F01853229F4B60190E00E94ED
S1130E40EE08E7CF912C212C312CFFE1F315D8F0DB
S1130E508B3279F038F4803279F08332A1F4232D87
S1130E6020611DC08D3261F0803369F4232D21602F
S1130E7016C0832D8260382EE32DE4603E2E2AC0F6
S1130E80F32DF8601DC037FC2DC020ED280F2A304B
S1130E9040F08E32B9F436FC81C1232D2064322E09
S1130EA019C036FE06C08AE0989E200D1124922EA9
S1130EB011C0EAE02E9E200D1124222EF32DF062A3
S1130EC03F2E08C08C3621F4832D8068382E02C052
S1130ED0883641F4F70193FD859193FF81917F0159
S1130EE08111B3CF982F9F7D9554933028F40C5FD4
S1130EF01F4F9FE399830DC0833631F0833771F020
S1130F00833509F059C021C0F801808189830E5FBF
S1130F101F4F88248394912C530113C02801F2E0BD
S1130F204F0E511CF801A080B18036FE03C0692D1C
S1130F3070E002C06FEF7FEFC5010E94E3084C012F
S1130F408201F32DFF773F2E16C0280122E0420EC6
S1130F50511CF801A080B18036FE03C0692D70E0F9
S1130F6002C06FEF7FEFC5010E94D8084C01F32D3A
S1130F70F0683F2E820133FC1BC0822D90E088165E
S1130F809906B0F4B60180E290E00E94EE082A943B
S1130F90F4CFF50137FC859137FE81915F01B601ED
S1130FA090E00E94EE0821102A9421E0821A910810
S1130FB08114910471F7E8C0843611F0893641F543
S1130FC0F80137FE07C060817181828193810C5FD3
S1130FD01F4F08C060817181072E000C880B990B8C
S1130FE00E5F1F4FF32DFF763F2E97FF09C090959C
S1130FF08095709561957F4F8F4F9F4FF0683F2E7E
S11310002AE030E0A3010E942A09882E861845C0F0
S1131010853731F4232D2F7EB22E2AE030E025C00F
S1131020932D997FB92E8F36C1F018F4883579F055
S1131030B5C0803719F0883721F0B0C0E92FE061DE
S1131040BE2EB4FE0DC0FB2DF460BF2E09C034FECD
S11310500AC0292F2660B22E06C028E030E005C061
S113106020E130E002C020E132E0F801B7FE07C021
S113107060817181828193810C5F1F4F06C0608102
S1131080718180E090E00E5F1F4FA3010E942A0946
S1131090882E8618FB2DFF773F2E36FE0DC0232D9C
S11310A02E7FA22E891458F434FE0BC032FC09C0E2
S11310B0832D8E7EA82E05C0B82CA32C03C0B82C7B
S11310C001C0B92CA4FE0FC0FE01E80DF11D808102
S11310D0803321F49A2D997EA92E09C0A2FE06C060
S11310E0B394B39404C08A2D867809F0B394A3FC16
S11310F011C0A0FE06C0B21488F4280C922C9B18D0
S11311000EC0B21460F4B60180E290E00E94EE08D2
S1131110B394F7CFB21418F42B1802C0982C212CD6
S1131120A4FE10C0B60180E390E00E94EE08A2FE87
S113113017C0A1FC03C088E790E002C088E590E0F6
S1131140B6010CC08A2D867859F0A1FE02C08BE24C
S113115001C080E2A7FC8DE2B60190E00E94EE0897
S1131160891438F4B60180E390E00E94EE089A9462
S1131170F7CF8A94F301E80DF11D8081B60190E068
S11311800E94EE088110F5CF222009F442CEB60168
S113119080E290E00E94EE082A94F6CFF601868160
S11311A0978102C08FEF9FEF2B96E2E10C94A40984
S11311B0FC010590615070400110D8F7809590951E
S11311C08E0F9F1F0895FC01615070400190011023
S11311D0D8F7809590958E0F9F1F08950F931F93B6
S11311E0CF93DF93FB01238121FD03C08FEF9FEF9A
S11311F02CC022FF16C046815781248135814217B5
S1131200530744F4A081B1819D012F5F3F4F318387
S113121020838C93268137812F5F3F4F378326832A
S113122014C08B01EC01FB010084F185E02D0995CC
S1131230892BE1F6D80116968D919C91179701960A
S113124017969C938E931697CE01DF91CF911F91A1
S11312500F910895FA01AA27283051F1203181F124
S1131260E8946F936E7F6E5F7F4F8F4F9F4FAF4FAA
S1131270B1E03ED0B4E03CD0670F781F891F9A1FBD
S1131280A11D680F791F8A1F911DA11D6A0F711D71
S1131290811D911DA11D20D009F468943F912AE07D
S11312A0269F11243019305D3193DEF6CF01089565
S11312B0462F4770405D4193B3E00FD0C9F7F6CF96
S11312C0462F4F70405D4A3318F0495D31FD40525E
S11312D0419302D0A9F7EACFB4E0A69597958795F4
S11312E077956795BA95C9F70097610571050895D3
S11312F09B01AC010A2E069457954795379527957F
S1131300BA95C9F7620F731F841F951FA01D089516
S11313102F923F924F925F926F927F928F929F9201
S1131320AF92BF92CF92DF92EF92FF920F931F93EF
S1131330CF93DF93CDB7DEB7CA1BDB0B0FB6F894A0
S1131340DEBF0FBECDBF09942A88398848885F84E0
S11313506E847D848C849B84AA84B984C884DF8051
S1131360EE80FD800C811B81AA81B981CE0FD11D35
S11313700FB6F894DEBF0FBECDBFED010895F8940B
S1051380FFCF99
S1131382014000F8F80101014976616E205072694A
S11313926E74732070726F6A65637400004D6573B6
S11313A2736167652066726F6D205043202140236C
S11313B22400001D140302180006000000020000AD
S11313C200001C0400000000246C696D0024746990
S11313D26D003A0024646174002D0052554E0A0DCA
S11313E20020253032643A253032643A25303264A2
S11313F220253032642D253032642D3230253032AE
S1131402640021212120646174612070617273651A
S10B1412206572726F72000084
S9030000FC
